:020000040800F2
:10000000A00A00207D020008D5550008A94D00086F
:1000100000000000000000000000000000000000E0
:10002000000000000000000000000000ED55000886
:100030000000000000000000EB55000841560008D9
:100040008F0200088F0200088F0200088F0200084C
:100050008F0200088F0200088F0200088F0200083C
:100060008F0200088F0200088F0200088F0200082C
:100070008F0200088F0200088F020008F556000862
:1000800005570008155700088F02000800000000FF
:100090008F0200088F0200088F0200088F020008FC
:1000A0008F0200088F0200088F0200088F020008EC
:1000B0008F0200088F0200088F0200088F020008DC
:1000C00000F002F800F0CBF812A030C8083824186D
:1000D0002D18AC4201D100F0C2F80FCCA246AB46BD
:1000E0000CA730CF2D1B083F3F197C427F1E544484
:1000F0002D090426F441641EAC4201D300F0AFF890
:100100000126334200D0FB1A3343984754465D46DC
:10011000DFE700002871000048710000103A02D3A8
:1001200078C878C1FAD8520701D330C830C101D598
:1001300004680C6070470000704700000023002432
:1001400000250026103A01D378C1FBD8520700D30E
:1001500030C100D50B60704710B56E2902D100F098
:100160006DFE10BD702902D100F0A7FF10BD6629F9
:1001700002D106F065FC10BD652902D106F060FCD5
:1001800010BD672902D106F05BFC10BD612902D1C8
:1001900006F05EFC10BD03681B0A01D380231943DF
:1001A000692902D100F014FE10BD642902D100F0CB
:1001B0000FFE10BD752902D100F00AFE10BD6F2997
:1001C00002D100F025FF10BD782902D100F062FFB6
:1001D00010BDE92902D100F0C1FE10BDE42902D111
:1001E00000F0BCFE10BDF52902D100F0B7FE10BD35
:1001F000EF2902D100F018FF10BDF82902D100F05C
:1002000057FF10BD0368DB0901D38023194363291D
:1002100002D101F03AFC10BD732902D101F03DFC7E
:1002200010BDE32902D101F047FC10BDF32902D132
:1002300001F04AFC10BD002010BD1FB501F0AAFC62
:1002400004000020002106F0E5FB401C6060002057
:10025000002106F0C9FBE0601FBD10B510BD01F024
:1002600071FC1146FFF7E9FF06F040F902F006F8CD
:1002700003B4FFF7F2FF03BC02F04CF807488047D5
:1002800007480047FEE7FEE7FEE7FEE7FEE7FEE77A
:1002900004480549054A064B70470000F15600081E
:1002A000C1000008A0040020A00A0020A006002031
:1002B000A0060020FEB5044610460D46184373D034
:1002C000A6468C460020A41A01469D4167D3664687
:1002D000002701243D46B61A9D4102D313463A46F3
:1002E0002124654676462F04360C3E432D0CB61A63
:1002F0009D4104D3150C1B042B4312041034654696
:1003000076462F06360A3E432D0AB61A9D4104D37F
:10031000150E1B022B4312020834654676462F0742
:1003200036093E432D09B61A9D4104D3150F1B0112
:100330002B431201241D65467646AF07B6083E439F
:10034000AD08B61A9D4104D3950F9B002B43920034
:10035000A41C65467646EF0776083E436D08B61A3C
:100360009D411AD392185B41641C16E00018764632
:1003700065464941B71A9D410191009009D36046F5
:10038000B11A98418E468446009801990025401C78
:100390006941DD0752082A435B08641EE6D57246B0
:1003A000634603B0F0BDFFE72046284307D0002096
:1003B000C0430146C046C04622462B46F1E7002016
:1003C0000146F7E70FB41CB5084B06AA7B44694603
:1003D0000090059800F04BFD04460020694600F0AF
:1003E00059FD20461CBC08BC04B01847C50A0000D3
:1003F000D2B210B513029A1813049A1800F00EF82E
:1004000010BD01E004C0091F0429FBD28B0701D5F0
:100410000280801CC90700D00270704700290BD0F1
:10042000C30702D00270401C491E022904D383076F
:1004300002D50280801C891EE3E70022EEE700223D
:10044000DFE70000002203098B422CD3030A8B4212
:1004500011D300239C464EE003460B433CD40022BC
:1004600043088B4231D303098B421CD3030A8B42CE
:1004700001D394463FE0C3098B4201D3CB01C01A9C
:10048000524183098B4201D38B01C01A5241430967
:100490008B4201D34B01C01A524103098B4201D355
:1004A0000B01C01A5241C3088B4201D3CB00C01AC2
:1004B000524183088B4201D38B00C01A524143083A
:1004C0008B4201D34B00C01A5241411A00D201465F
:1004D0005241104670475DE0CA0F00D049420310F8
:1004E00000D3404253409C46002203098B422DD347
:1004F000030A8B4212D38901FC2212BA030A8B42EF
:100500000CD3890192118B4208D3890192118B423D
:1005100004D389013AD0921100E08909C3098B42C2
:1005200001D3CB01C01A524183098B4201D38B0105
:10053000C01A524143098B4201D34B01C01A5241A8
:1005400003098B4201D30B01C01A5241C3088B42ED
:1005500001D3CB00C01A524183088B4201D38B00D8
:10056000C01A5241D9D243088B4201D34B00C01A62
:100570005241411A00D201465241104663465B1077
:1005800001D34042002B00D54942704763465B10BF
:1005900000D3404201B50549002802DC491C08404F
:1005A00000E00846C046C04602BD00BFFFFFFF7F17
:1005B0007047704770470000F0B5F94D0C091E09EF
:1005C0002C402E402F468BB0A7437DD0B543FCD0A6
:1005D000002E7AD0002CFCD00D465D40ED0F254357
:1005E000AC1BFF25AD0464190894C502440DC90273
:1005F0002143500DDC0204430120C00701430443A2
:10060000D2020191200C110C00958C460104234666
:100610008B430A9161460904E24D8A430991010A1C
:100620007D4449198039097805464D4301266D18E6
:10063000F605751B6943C90C640B891C4C4364188F
:10064000B5012C1B250C2E04B4434C434D43210C07
:10065000691889090591009DE90701D00121C907A1
:1006600004912C4601996708CD072F434C08059D3E
:10067000E10B4D432D0C29466646754302950D4608
:1006800045432E46029D7D1BB44100950D465D43BA
:1006900001942C0C2F040D465543AE462D0C3D43C2
:1006A000029503947546049C2D04641B049406D2A1
:1006B000029C039D641C002675410395029401ACC5
:1006C00070CC009F7D1B01E03EE162E1B441090472
:1006D0000095079101940599A4086143090C0C4603
:1006E0004443650BE7040C4666467443A646640B18
:1006F0003C43039502947446049DE4042C1B04942B
:1007000006D2029C039D641C002675410395029449
:1007100001AC70CC009F7D1BB44101940C465C433E
:100720000095650FE7000C465443A646640F3C4312
:10073000039502947446049DE4002C1B049406D295
:10074000029C039D641C002675410395029401AC34
:1007500070CC009F7D1BB441AE09AF06049DC9005B
:10076000AD092F43049DA406AD060495079D3443AF
:1007700069180791059DE10B4D432D0C29466646EE
:10078000754302950D4645432E46029D7D1BB4419F
:1007900000950D465D4301942C0C2F040D465543E6
:1007A000AE462D0C3D43029503947546049C2D04E2
:1007B000641B049406D2029C039D641C00267541B0
:1007C0000395029401AC70CC009F7D1BB441019451
:1007D0008C050694079C890A611800950791019C75
:1007E0000599A4086143090C0D464543680BEF04C5
:1007F0000D46644665436C0B3C43049FED047D1B32
:10080000AC4602D20025641C6841009E019D371B46
:1008100085410846584301950C46460FC500544390
:10082000600F28436546E4002C1B02D20025401CC3
:100830006E41019D3F1AB5412846BD0980062843F7
:100840008446A009BF064E020699A40676180743FF
:10085000079D002068410A99079019430020099BD1
:1008600000906046FF1913434041E20F64003A4391
:10087000A4460446D71A8C41A04203D90120009017
:1008800020463A46C70F941840416246D20F224391
:10089000644664000494009CBE466400D71AA446D3
:1008A000044602978C417746002F01D1A04204D91B
:1008B0006046401C8446029A2046C40FA6469418FF
:1008C0004041049A0546D20F224364466400D31A7D
:1008D0008D417146002901D1A84202D928461A4605
:1008E000641C10430122002800D01643610200203E
:1008F000079B891904465C410223002C02DB49183E
:1009000013466441089DCE0A2D145D194B056705F9
:10091000E10A2C050D1908993E43C9076940002BCF
:1009200008D0934006D30022761C5141002B01D100
:10093000760876001C4A002D43DB154241D0AA43BD
:100940003FD030460BB0F0BD06180D464D41174C58
:100950007642AC411AD395181C465C41134A6D424D
:10096000A24113D3012252054C00D4420AD15C00AB
:10097000D4420BD04B4002D592021143E2E749002A
:100980004908DFE75940C90FC90718E000200849A6
:10099000D8E7054801420DD10342F7D0F2E7000045
:1009A0000000FF073C6400000000F07F0000E0FF53
:1009B0000000F87F114859400143C0124140002017
:1009C000C0E70123089A9B069A4205DC03225207DE
:1009D0008918C90FC907B5E7052252078918074AC0
:1009E0001143D2125140ADE770B515461C46024680
:1009F0000B4628462146FFF7DFFD70BDFFFFFF7F56
:100A000030B50346CA02400D1043164D164C0A1568
:100A100002D02043002A06DBAA1A002A12DDD040A9
:100A2000FF2A0BDC30BD5205520D01D140004008B9
:100A3000AA1A07D4D0404042FF2A01DD002030BD71
:100A40000028FCDD4A00002B01D0012000E000203E
:100A5000101801225205D042F0D8C817C043604098
:100A600030BD00001E040000000000801F22030CA7
:100A700002D10F22000402D0030E03D004E00020B4
:100A8000014670470002083A030F01D10001121F0E
:100A9000830F01D18000921E002801DB4000521E0E
:100AA000120551184205C012411810467047C10F77
:100AB000C90700D04042012292071143D6E7012125
:100AC0008907D3E7F0B58B4C0F09254689B0BD43A4
:100AD0007BD01D092646AE43FAD00E465E40274025
:100AE000F60F3E43254071D024012142FBD0FF2464
:100AF000AD19A4042D1B039501252D05DB02DB0A8E
:100B0000C9022B43C90A29431E010901040F130F0F
:100B1000050121431701880B820391432D098C465F
:100B2000A90B1E438A039543B30B9A0396433F09CF
:100B3000BA0B9403A74302962E467E430497B6460B
:100B40004E19D7190C460196544305977E43371B1F
:100B50007646BF1B3601B646BE0B36190096764662
:100B6000BC043719009C01D3641C00946400002F5E
:100B700001D001263443029E049F754366467E439E
:100B80000496760034196E0034190094029C019E7C
:100B90001C196643751BAE46069465464519059CAF
:100BA00005956C43594375460891691A0191049E55
:100BB00001465143A41B0491611A009C0791E10670
:100BC00005D061090122114302E072E06EE0610983
:100BD000089D00272C0A2D066918049D7C412A0ACD
:100BE0002D066918019D6241AC0DAD026D1854418E
:100BF000079A910D920255196141029A6446584331
:100C00005443069B059A5A43121A131B9A0E9B01D2
:100C10005B187A41010B0005C3185141220A2006D6
:100C200044195A419A4200D2491C01204002814293
:100C300003D315230226F64302E014230326F643CA
:100C40002020C51AA9401746AF40DA400A43204683
:100C50000399D8400914731819055118039A384399
:100C6000D2075140AC4009D00122944006D3002263
:100C7000401C5141002C01D1400840001E4A9342C3
:100C800012D3012203989206904207DB0520400709
:100C900009181A480143C012414004E003204007EC
:100CA0000818C10FC907002009B0F0BD0020F107E6
:100CB000FAE705180C464C4111486D42A04115D386
:100CC00094181A465A410E48644290410ED30120AE
:100CD0004A004005824209D35A00824206D3594055
:100CE000C90F084AC90700201143DDE70020064963
:100CF000DAE700000000FF07FE070000FFFFFF7FAC
:100D00000000E0FF0000F07F0000F87F70B50446AF
:100D100085690068C10601D5302600E02026C0079D
:100D200007D070BD62683046A1689047206A401CB9
:100D300020626D1EF6D570BD70B5044685690078D9
:100D4000C00707D170BD6268A16820209047206A63
:100D5000401C20626D1EF6D570BD09684A0501D59C
:100D600040B27047C905FCD500B2704709684A0512
:100D700001D5C0B27047C905FCD580B2704770B5C7
:100D80000C460546012A05D02878800600D5EA6978
:100D9000002302E0012305E05B1C934202D2E05CE9
:100DA0000028F9D1A869E618C01AA861286AC018F5
:100DB00028622846FFF7AAFF04E06A682078A9683D
:100DC000641C9047B442F8D32846FFF7B5FF70BDC6
:100DD000F7B5002575291068009914A611D0FFF702
:100DE000BCFF002802DA404211A608E00099096819
:100DF0008A0701D50FA602E0490704D50EA60125F2
:100E000001E0FFF7B3FF009F0024243704E000F067
:100E100080FE30313955641C0028F8D12B4632460B
:100E20002146009800F057FAFEBD000000000000C7
:100E30002D0000002B000000200000001168026857
:100E4000006A530501D5087009E0D30501D5088073
:100E500005E0130602D5C21705C100E008600120B5
:100E60007047000001694A1C02610878704700B5AC
:100E70008FB00291002105910549019379440391B6
:100E800011460490684600F025F90FB000BD00003F
:100E9000E5FFFFFF0A681070521C0A6070470000EF
:100EA000F7B50446154686B02B487844002703C89A
:100EB0003E460090019111E007986A467100415A40
:100EC00002A800F005FE411C07D02178890603D551
:100ED000E269391891420ED83F18761C20788006B6
:100EE00002D5E069B84206DDAE42E5DB0798710045
:100EF000405A0028E0D1A069C01BA0612046FFF73E
:100F000005FF154878445A3803C800900020019125
:100F100016E041006A460798415A02A800F0D8FD41
:100F20000590401C0AD0002505E0626802A8A1686F
:100F3000405D90476D1C05988542F6D30498401C8F
:100F4000B0420490E5DB206AC01920622046FFF71A
:100F5000F3FE09B0F0BD0000325C0000F7B5D21D11
:100F60000025D20815A6D200F52905CA11D0002AFD
:100F700005DA00214042914111A60A4608E0009995
:100F800009688B0701D50FA602E0490701D50EA617
:100F900001251146009F0024243704E000F05EF98B
:100FA00030323A55641C02460A43F7D12B4632468A
:100FB0002146009800F08FF9FEBD000000000000FF
:100FC0002D0000002B0000002000000070B504463A
:100FD0000021243408E05507D2086D0F30356554E0
:100FE0005D072A43DB08491C15461D43F3D10468FD
:100FF000002310A2250708D520252C400C4304D03F
:10100000C46901230CA2641EC46100F064F970BDC0
:1010100010B5044621461068FFF7A8FE00230246DB
:101020002046FFF7D3FF10BDD21DD108C9000CC95F
:10103000CCE700000000000030000000F8B50F46CB
:101040000188090502D5224C7C4402E0204C7C44F6
:101050000E3405460021243508E016071209360F24
:10106000A65D6E541E0732431B09491C16461E43DB
:10107000F3D1224604780023240705D5702F06D02B
:10108000002901D00223113200F025F9F8BD012317
:101090001032F9E770B504460D4621461068FFF797
:1010A00065FE0023024629462046FFF7C7FF70BDB4
:1010B000D21DD308DB000CCBC0E730B4036820247A
:1010C0001268234303600823C36130BC0023B5E7E3
:1010D0009C5A0000F3B50446002081B020622046EF
:1010E000E1688847002872D0252802D06268A1688C
:1010F000ABE0594F00267F442046E168884720280E
:10110000054608DB312D06D27819203800780028F2
:1011100001D00643F0E7B00701D504208643002044
:10112000E0610746A0612A2D0AD0284605F054FC4C
:10113000002827D0B8000019303D0090856119E0E3
:101140000298BA00121902C8916102902046E16823
:101150008847012F054617D1E06900281FDA2020B3
:1011600086431CE000980A21806948430099401991
:10117000303888612046E1688847054605F02CFC38
:101180000028EFD1012F0AD02E2D08D12046E1688A
:1011900088470546202006437F1C022FC3DBA06939
:1011A000002803DA4042A06101200643F00701D085
:1011B000102086436C2D0BD0682D09D04C2D3CD0CF
:1011C0006A2D38D0742D38D07A2D36D016E040E014
:1011D000E1682F4620468847B842054609D16C2F62
:1011E00029D001208002E168064320468847054651
:1011F00004E06C2F1DD0FF2001300643002D28D0C5
:1012000028464138192803D80120C002064320355A
:10121000204626602946029A1646FEF79DFF0028C2
:1012200010D001280BD0F61DF008C0000830029045
:1012300055E74020E1E78020D5E70020D3E7361DC1
:1012400002964CE762682846A1689047206A401CD5
:1012500044E7206AFEBD0000165A00000B4670B538
:10126000024689078008084319469D08141AA941B7
:1012700025090807054308092C194841250A0106D4
:101280000D43010A2C194141200C0D0428430D0C7B
:1012900000194D41002140194D41C008690708431C
:1012A000E908840F8D002543840024184D4124193A
:1012B0006D41121BAB4107E00925ED432C1152197A
:1012C00063410024401C61411C460A250026551B31
:1012D000B441F1D270BDFFB504460D4681B0243053
:1012E00000902168880604D51022E06991432160AE
:1012F00000E00120A84201DD471B00E00027049820
:10130000A1697A191018081AA0612078C00602D4C1
:101310002046FFF7FBFC002608E003986268A168FE
:10132000805D9047206A401C761C206204988642AB
:10133000F3DB2078C0060AD52046FFF7E7FC06E07D
:101340006268A16830209047206A401C20623846BD
:101350007F1E0028F4DC07E000986268A168405D09
:101360009047206A401C206228466D1E0028F3DC4E
:101370002046FFF7E1FC2078000602D5022005B0E8
:10138000F0BD0120FBE70000FFB50C461E468FB004
:1013900003CA089009914F007D0D00D16D1E0021F8
:1013A00008460020C0460321099A89050840002A02
:1013B00003DA8200801840080840800D01280A9056
:1013C00002DD0020C0430A90089807430DD0F04882
:1013D000F049281848430714189800281DD0754272
:1013E000291E1DDD0A9842421BE01898012802D0F0
:1013F0000020302104E00020F24305E02154401C8D
:10140000B042FBDB30460022189B002121540F998B
:101410008B600A60486013B0F0BDBD1B6D1CDFE738
:101420000A9A002900DA69420BA800F0FBFB0BAB1B
:1014300007CB03AB07C30899099800F05FFC6B4624
:1014400007C30146D4480918002D00910BDDD2498D
:1014500003980A9A49424018002303A9039068465A
:1014600000F0BCFE08E003990A9A0023081803A9BB
:101470000390684600F05CFE6B4607C30004000C56
:1014800003D00020C043410800E01046189A002A0B
:1014900003D00022009215461EE0751E05D4FFF70A
:1014A000DDFE303262556D1EF9D5012208430796E4
:1014B00002D000227F1C04E02078302801D10022D5
:1014C0007F1E002A069787D01EE0112D07DAFFF74E
:1014D000C5FE303262556D1C02460A43F5D1084301
:1014E00003D00098002819D00EE00021681E05E006
:1014F000235C625C63542254401E491C8142F7DB2A
:10150000A81B401E07950690079A18990020A05422
:101510000F98079B069A81600CC07CE7112600207B
:10152000189059E7D21DF0B50D460446D10893B086
:10153000C90003C90C900D9105F038FA02460D98C8
:10154000C00F01D02D2007E02068810701D52B2096
:1015500002E04007C00F4001032A0F9001D0072A84
:1015600005DB03462946204600F018FB0EE12078F3
:10157000800601D5E76900E006272846652D04D0DE
:10158000662814D0672D69D12DE00020112F00901E
:1015900001DB112300E07B1C0CAA03A910A8FFF7B4
:1015A000F3FE1199002610987D1C0E9142E0012057
:1015B0003B460CAAC0070B900120009003A910A87D
:1015C000FFF7E2FE119D12981099002600280E9553
:1015D00001D1781C0D18781B02D446427D1C761E62
:1015E000E81B00903AE0012F00DA01270020112FBC
:1015F000009001DD112300E03B460CAA03A910A8CE
:10160000FFF7C2FE11993D46109800260E912178F1
:1016100009070BD40E99A94200DA0D4603A9012D42
:1016200004DD4A19203AD27F302A06D0B84201DAC6
:10163000011D04DA012100910FE06D1EEFE7002883
:1016400002DC86192D1A03E0411CA94200DD0D467B
:10165000801B401C00900120C0070B9020780007E1
:1016600005D40098A84202DB0020C04300906946E0
:101670000020C8720B98012102AF0337C9078842C6
:1016800025D0022010902B2011900B9800280BDA07
:1016900040420B902D20119006E00B9800F039FA93
:1016A00030317F1E0B9039701099481E0029109020
:1016B000F3DC0B980028F0D111987F1E3870208839
:1016C000000501D5452000E065207F1E387001A887
:1016D000C01BC01D0B900F98002800D0012041199D
:1016E0000098C01709180B980818A169081A401E1D
:1016F000A0612078C00602D42046FFF707FB0F98B0
:10170000002805D06268A1689047206A401C2062CA
:101710002078C00625D52046FFF7F8FA21E0002EF4
:1017200007DB0E98B04204DD03A86268805DA16803
:1017300002E06268A16830209047206A761C401C55
:1017400020620098401E002800900AD100F022FA82
:10175000C06862680168405CA1689047206A401CCC
:10176000206228466D1E0028D9DC07E062683878C0
:10177000A1687F1C9047206A401C20620B99481E7C
:1017800000290B90F2DC2046FFF7D6FA032042E650
:1017900001FCFFFF104D0000E1DFFFFFD21DF0B59F
:1017A00004460D46D0088DB0C00046680768314633
:1017B000384605F0FBF80246F00F01D02D2307E074
:1017C0002068810701D52B2302E04007C00F4301A9
:1017D0006846002B037001D0012000E00020032A9E
:1017E0000A9001D0072A04DB2946204600F0D6F9EA
:1017F0002DE12078800601D40D2500E0E569700018
:10180000400D0D2D01904BDA300D00210B90084654
:101810000020C046032189050840002E05DA820019
:101820008018C20F1018401008408015012801DDF3
:101830000020C043A9000023182906D39C460A466D
:101840000123183A1B07D34003E001221205CA40C6
:1018500094460C31202902D33A46203900E0324622
:101860008A40002802DD002A06D119E0002817D19D
:101870000121C9078A4213D3194663467F185E4186
:10188000002806D10120C007824202D108468743C2
:101890009E430B98310D814202D00198401C01906B
:1018A0002088000502D57149794402E06F497944E6
:1018B00019396B460A9830221A540A980A7C401C3F
:1018C0001A54401C0A900198002801DC302000E0E6
:1018D00031201872019A0120002A02D0644BD218DC
:1018E00004E072003A4302D0614A521C0192002D7A
:1018F00002DC2278120703D56A462E20507202209D
:101900000022864694460CE032033601120F6D1E0B
:101910008B5C02AA13546246521C401C9446052A52
:1019200001DA002DF0DC002202AE08E03B0F3F019F
:10193000CB5C521C6D1E3354401C082A01DA002D6A
:10194000F4DC23689A0601D511E0401E704504DDE1
:101950003218203AD27F302AF7D0002807DD32181B
:10196000203AD27F2E2A02D11A0700D4401E002D21
:1019700003DD3E223254401C6D1E497C31540199D6
:10198000401C002906DA2D21471C315401984042A1
:10199000019003E02B21471C315401987D21C9009F
:1019A000884206DBFEF758FD3030F0557F1C019170
:1019B00001E0642808DB01986421FEF74DFD30301A
:1019C000F0557F1C019101E00A2806DB01980A21ED
:1019D000FEF742FD3030F0557F1C01980A21FEF7DA
:1019E0003BFD3031F1550A98A1697F1C7A19101816
:1019F000081AA0612078C00602D42046FFF786F9B5
:101A0000216A6E460A980818206204E062683078FD
:101A1000A168761C90470A98401E0A90401CF5D198
:101A20002078C00602D52046FFF770F902AE09E023
:101A30003078761C3E280DD06268A1689047206AF5
:101A4000401C20627F1EF3D22046FFF775F90DB0CF
:101A50000320F0BD206A4019206203E06268A1689B
:101A6000302090476D1EEDD3F8E70000885200004B
:101A700001FCFFFF10B54369002B02D0C046C046F1
:101A800001E0FFF77CF9012010BD127801462431F6
:101A90000A7000224A700122ECE711680022D2434A
:101AA000E8E710B54369002B02D0C046C04601E00C
:101AB000FFF7F6F9012010BD128801462431828417
:101AC0000022C2840122ECE711680022D243E8E739
:101AD000F8B516460C46054600F054F80368FF209A
:101AE0000230C05C012807D0FF2C0FD8185D0028F9
:101AF0000CD001202C70F8BDFF333246214608334C
:101B00001868C71828460023B847F8BD0020C0430E
:101B1000F8BD01468008081A02091018020A1018B8
:101B2000020C1018C008820012185200891A01E035
:101B3000401C0A390A29FBD2704700000048704750
:101B4000100000207546FFF7F9FFAE460500694614
:101B50005346C008C000854618B020B5FEF798FB74
:101B600060BCB64600260027C0C5C0C5C0C5C0C5FC
:101B7000C0C5C0C5C0C5C0C5403D490849008D4667
:101B80007047000010B500F005F8001D10BD00BF43
:101B9000854E00000048704730000020F8B51F4611
:101BA000044601230068DB02032601461840072A89
:101BB00005DB002801D017A506E017A504E00028E2
:101BC00001D016A500E016A5102081432160A06970
:101BD000C01E002FA06101D0401EA0612046FFF76B
:101BE00095F8002F09D038466268A1689047206AAE
:101BF000401C2062C01C206206E0206AFAE762688E
:101C00002878A1686D1C9047761EF8D22046FFF711
:101C100093F8F8BD4E414E006E616E00494E46008D
:101C2000696E6600F7B516468AB0334878446C464C
:101C300003467C33C06F5A689B680DC42E487844B5
:101C4000763003AC0DC80DC43720C0010818372109
:101C50001B30FEF701FC05460C46803D1B3C02D5BF
:101C60006442012000E000200027099010E0E00716
:101C70000CD00C2020497843794432464C39411825
:101C80006846012300F054FA6B4607C364107F1CBA
:101C9000002CECD1184F7F442E3F16E0E80712D0FD
:101CA0002001C0190EC80691089307920068F042FF
:101CB00001D1981908903246012306A903A800F023
:101CC00037FA03AB07C36D10641C002DE6D10998E9
:101CD000002806D032466946012303A800F07EFAA8
:101CE00005E001233246694603A800F021FA0A9B69
:101CF00007C30DB0F0BD0000184F000003464000C0
:101D00000A4610B5400D0BD00121C9070F24A402CB
:101D100000191C0364082143540D2143D20207E03B
:101D200000210120F2E7D40F490021435200401E58
:101D30000029F8DADB0FDB07184310BDFFB50D46AD
:101D4000144685B04868516804F018FE009101906F
:101D5000A868A16804F012FE02910390A868616867
:101D600004F00CFE029A12188242029201D2012063
:101D700000E00020019A0B18D2180028019202D02E
:101D80008A4202D903E08A4201D2012000E0002009
:101D90000099081800906868A16804F0EFFD029AA5
:101DA00012188242029201D2012000E00020019A22
:101DB0000B18D2180028019202D08A4202D903E0FF
:101DC0008A4201D2012000E000200099081800900A
:101DD0002868216840004900400849084018FA492D
:101DE000471814E001994000C90F0843009001987A
:101DF00002994000C90F08430190029803994000DE
:101E0000C90F08430290039840007F1E039000987A
:101E10000028E7DA0898002801D0EC4E00E0002600
:101E2000B74201DA012000E00020002804902AD007
:101E3000F71BF806C00E15D0029B2021091A039A41
:101E40008B401A430392029A019BC2408B401A4373
:101E50000292019A009BC2408B4000991A43019262
:101E6000C14000917B110DD06F460320C11A03D5EC
:101E700000218200B95003E08A008100BA587A50EC
:101E8000401EF3D5374603980299002800D0012060
:101E9000014308980291002808460CD0002800D081
:101EA00001200199019A490508430121D20AC9027A
:101EB000D202019200E001210E9B0122D207012BE8
:101EC00002D0002B03D013E0002807D120E090427D
:101ED00004D890420CD1019B0B4209D0019B5918A8
:101EE000019105D10099491C009101D17F1C0092FC
:101EF00000280DD0102108460020C0460498002874
:101F000006D00F98002803D0082108460020C046BC
:101F100028682168019B009A4840C10F0598C907AD
:101F200039430EC009B0F0BDFFB587B0099A0898D3
:101F3000089953689268406889689646002203931E
:101F400017469446089A12685300099A5B0812686B
:101F5000520052089A1A9E4BD4180A9A002A01D0AD
:101F6000352200E040220692002201231546049209
:101F7000DB07059324E0002D05D175460346039E3B
:101F80004D1BB34109D375466646039B491B049D0F
:101F90009841059B7519AC465F4163463B4308D0A9
:101FA000059B049EDD0776082E435B080496059387
:101FB00001E0521E641EC50FED0749184041521C36
:101FC000069B9A42D7DB002D04D17546039A6B1A03
:101FD000824101D203200CE0039A0B466B40424041
:101FE000134303D0014303D0012002E0022000E0AC
:101FF0000020614601910021009702910A99002971
:1020000005D0614640020143704B019102E0800718
:10201000002302909C4201DA012000E0002007002A
:102020003AD01A1BD006C00E15D0029D2021019C6B
:10203000091AC5408C402543029C8C4000D00124E5
:102040002543019C0295009DC4408D4000992C437E
:102050000194C140009154111DD06D46022100220F
:1020600002290CD10320001B07E0002804DB8600B6
:10207000AE59002E00D00122401C0328F5DB081BBE
:1020800002D588002A5004E08000285810438A00B6
:10209000A850491EE3D51C460A98002802980CD087
:1020A000002800D001200199019A49050843012127
:1020B000D20AC902D202019200E00121109B012242
:1020C000D207012B02D0002B03D013E0002807D148
:1020D0001FE0904204D890420CD1019B0B4209D0E2
:1020E000019B5918019105D10099491C009101D11A
:1020F000641C009200280CD0102108460020C04625
:10210000002F06D01198002803D00821084600208F
:10211000C04608980999019A009B006809684840E0
:10212000C10F0798C907214382600AC00BB0F0BDF8
:1021300000B585B0019300920A460146002302A82B
:10214000FFF7FCFD02A807C805B000BDFFB50A46B1
:102150001F4685B00799019301230091014602A80B
:10216000FFF7ECFD02990398049ECA0F4900D207BD
:1021700000920F22490892028C1A0021002800DBED
:102180000C46450013486D08844214D3079A002A70
:1021900004DA441E0026104DF64302E004460D46C4
:1021A0000E46102108460020C046002F03D004210F
:1021B00008460020C0462005E90A08430099084364
:1021C0006905F20A1143ADE602C0FFFF013C0000C1
:1021D000FF3F0000FF070000FFFFFF7F00B585B055
:1021E000019300920A460146002302A8FFF79CFED5
:1021F00002A807C8A8E7FFB50A461F4685B0079999
:10220000019301230091014602A8FFF78DFE029978
:102210000398049ECA0F4900D20700920F22490872
:1022200092028C1A0021002800DB0C464500114860
:102230006D08844214D3079A002A04DA441E00264B
:102240000D4DF64302E004460D460E4610210846A9
:102250000020C046002F03D0042108460020C046BD
:102260002005E90A0843009908436905F20A114369
:1022700058E60000FF070000FFFFFF7F10B504468F
:10228000C046C0462046FDF7F3FF10BD024670B5BC
:102290000A4392072AD11E4DEE0104C808C9541BF7
:1022A0009443344017D0D0B2D9B2401A210601432A
:1022B00010D190B299B2401A210401430AD1100200
:1022C0001902000A090A401A2102014302D1100E24
:1022D000190E401A70BD9A42DFD010BA19BA88425E
:1022E00001D9012070BD0020C04370BD02780B7879
:1022F000401C491C002A09D09A4207D102780B7869
:10230000401C491C002A01D09A42EFD0D01A70BD5F
:102310000101010101491820ABBEFEE726000200C1
:10232000704781B0EFF3108072B60090FFE7FEE7D0
:1023300080B584B0039000F0BDF90290039801903D
:102340000198401C002806D0FFE709480178019851
:1023500040180190FFE7FFE700F0ACF90299401A3E
:102360000199884201D2FFE7F6E704B080BDC0467C
:10237000040000208CB00B900A9100200990089076
:102380000790FFE70A9800680999C840002800D123
:1023900062E10A980068099A01219140084008907A
:1023A0000898002800D153E10A98406803210840AA
:1023B000012807D0FFE70A98406803210840022857
:1023C0002CD1FFE70B988068079009984000032103
:1023D00081400798884307900A98C168099840008F
:1023E000814007980843079007980B9988600B98DD
:1023F0004068079009980121814007988843079019
:102400000A984068102108400109099881400798FE
:102410000843079007980B994860FFE70A984068BF
:1024200003210840032816D0FFE70B98C0680790E7
:1024300009984000032181400798884307900A9833
:1024400081680998400081400798084307900798E1
:102450000B99C860FFE70A984068032108400228EA
:1024600020D1FFE70B980999C90889004018006A34
:10247000079009984007C00E0F21814007988843B4
:1024800007900A98016909984007C00E8140079893
:102490000843079007980B99099AD2089200891867
:1024A0000862FFE70B980068079009984100032035
:1024B00002468A400799914307910A994968014069
:1024C00009984000814007980843079007980B99A6
:1024D00008600A9880798007002800D1B7E05F493A
:1024E00008680122104308600998032188435C4969
:1024F0004058079009988007000F0F2181400798E6
:10250000884307900B9805210907884203D1FFE70C
:102510000020069038E00B985249884203D1FFE72B
:10252000012005902DE00B984F49884203D1FFE729
:102530000220049022E00B984C49884203D1FFE727
:102540000320039017E00B984949884203D1FFE725
:10255000042002900CE00B99464A052006230093C4
:102560009142019001D00098019001980290FFE7FC
:1025700002980390FFE703980490FFE70498059002
:10258000FFE705980690FFE7069909988007000F76
:1025900081400798084307900798099903229143BF
:1025A0002F4A885034480068079008990798884354
:1025B00007900A988079C006002805D5FFE708999A
:1025C000079808430790FFE707982B4908602B48B6
:1025D0000068079008990798884307900A988079BF
:1025E0008006002805D5FFE708990798084307905B
:1025F000FFE707982149086021480068079008997B
:102600000798884307900A9880798007002805D5A5
:10261000FFE70899079808430790FFE707981849CC
:102620000860184800680790089907988843079041
:102630000A988079C007002805D0FFE70899079815
:1026400008430790FFE707980E490860FFE7FFE798
:102650000998401C099095E60CB070473410024070
:10266000080001400004005000080050000C005019
:1026700000100050001C0050080401400C040140F0
:10268000040401400004014083B0029001A80180CD
:10269000684602700078002805D0FFE701A800888E
:1026A0000299886104E001A8008802998862FFE726
:1026B00003B07047014800687047C0469804002086
:1026C00010B583B00190009101984121405C202811
:1026D00039D1FFE7FFE701984021405C012804D190
:1026E000FFE702A90220087031E001994022012091
:1026F0008854FFE7FFE7019941222420885401987C
:102700000168086801239843086001980168086817
:102710001C03A0430860009C0198016808682043DE
:102720000860019801680868184308600199202032
:102730008854FFE70199402200208854FFE702A94E
:102740000020087003E002A902200870FFE702A839
:10275000007803B010BD84B002900191029841212D
:10276000405C20283FD1FFE7FFE702984021405C12
:10277000012804D1FFE703A90220087037E002997D
:10278000402201208854FFE7FFE7029941222420DC
:1027900088540298016808680123984308600298E9
:1027A00000680068009000980F210902884300909B
:1027B0000198010200980843009000980299096866
:1027C0000860029801680868184308600299202090
:1027D0008854FFE70299402200208854FFE703A9AC
:1027E0000020087003E003A902200870FFE703A897
:1027F000007804B07047000080B582B00090009867
:10280000002804D1FFE701A9012008707EE00098AC
:102810004121405C002808D1FFE7009940220020B8
:102820008854009800F0A6F9FFE70099412224207F
:102830008854009801680868012290430860009954
:1028400048680F231B0698430968086100980168CF
:102850008868D203904388600098C068012808D136
:10286000FFE7009988680122D20310430968886055
:1028700007E0009988682122920210430968886065
:10288000FFE70098C068022808D1FFE700980168B8
:1028900048680122D2021043486007E000980168AE
:1028A00048680122D20290434860FFE7009801681F
:1028B0004868184A1043486000980168C8680122B7
:1028C000D3039843C860009908694B6918438B6922
:1028D0001B0218430968C8600099C8690B6A18434D
:1028E000096808600098016808681043086000994A
:1028F00000204864009A41232021D15400990863A4
:1029000000994222885401A90870FFE701A80078C5
:1029100002B080BD00800002B0B58AB004461098B5
:102920000F980E9D089407AC218006A90A8005A97E
:102930000B8004A9088008984121405C202800D021
:102940000EE10E98002805D0FFE704A800880028B3
:1029500007D1FFE7089A01204102516409A90870D4
:1029600002E1FFE708984021405C012804D1FFE71D
:1029700009A902200870F7E0089940220120885434
:10298000FFE7FFE7FFF796FE039008980399009191
:102990000122D103192302F0ADFB002804D0FFE788
:1029A00009A901200870DFE00899412221208854FC
:1029B00008994222402088540899002048640E99C2
:1029C000089A51620499089A5185089948630898B1
:1029D00007A9098806AA128805AB1B88109C039DCD
:1029E0000195009402F0FEFA00280AD0FFE7FFE705
:1029F0000899402200208854FFE709A901200870A7
:102A0000B2E00898408D000A00280FD0FFE708992F
:102A1000FF200885089807A909882822825C0023DE
:102A2000009301231B0602F03BFB0FE00898408D4A
:102A300008990885089807A909882822825C00233C
:102A4000009301235B0602F02BFBFFE7FFE70898EA
:102A50001099039A02F0FFFB002804D0FFE709A9B0
:102A60000120087080E00899486A00780968886247
:102A70000899486A401C48620899488D401E48855C
:102A80000899088D401E08850898408D00283AD086
:102A9000FFE70898008D002835D1FFE70898109BC4
:102AA000039900918021002202F024FB002804D029
:102AB000FFE709A90120087056E00898408D000A38
:102AC00000280FD0FFE70899FF200885089807A97C
:102AD00009882822825C0023009301231B0602F050
:102AE000DFFA0FE00898408D08990885089807A933
:102AF00009882822825C0023009301235B0602F0F0
:102B0000CFFAFFE7FFE7FFE70898408D00289ED146
:102B1000FFE708981099039A02F04DFB002804D0B3
:102B2000FFE709A9012008701EE00898016820202D
:102B3000C86108990A6851680D4B1940516008999D
:102B4000412288540899422200208854FFE70899BE
:102B5000402200208854FFE709A90020087003E004
:102B600009A902200870FFE709A800780AB0B0BDE3
:102B700000E800FE80B588B0079000200690059020
:102B8000049003900290079800681349884221D16D
:102B9000FFE7FFE71148026802210A43026000686C
:102BA000084001900198FFE70320010202911221E1
:102BB000039101210091049105900420069008489A
:102BC00002A9FFF7D7FB009A3D4908685205104358
:102BD0000860FFE708B080BD005400402C100240A0
:102BE000000400502D4802780249086880180860E7
:102BF0007047C0469804002080B582B001A900202B
:102C000008700B490868402210430860032000F058
:102C100011F8002804D0FFE701A90120087002E0A4
:102C200000F040F8FFE701A8007802B080BDC04680
:102C30000020024080B584B00290174800680190DF
:102C4000164801787D20C000FDF7FCFB0146019885
:102C5000FDF7F8FB01F06EF8002804D0FFE703A9A8
:102C60000120087014E00298032809D8FFE70299B0
:102C70000022D04300F031F802980949086003E0CF
:102C800003A90120087003E003A900200870FFE7F2
:102C900003A8007804B080BD0000002004000020DC
:102CA0000800002005490868012210430860E74930
:102CB00008681207104308607047C046341002408D
:102CC0003810024080B582B0014601A80170002191
:102CD000405603F09FFB02B080BD80B584B0034630
:102CE00003A803700291019200214056029903F05B
:102CF000A7FB04B080BD000080B586B0049001A998
:102D0000002008700498006820210840202806D080
:102D1000FFE7049840780007002800D41FE10498DA
:102D200000788006002801D5FFE7FFE70498407887
:102D30000007002801D5FFE7FFE7C4480068C0008E
:102D4000002809D4FFE7C14A11680120030719438D
:102D5000116001A90870FFE7BD480068C0050028A0
:102D60001DD4FFE7BA490868012212021043086027
:102D7000FFF7A0FC0390FFE7B5480068C0050028F6
:102D80000CD4FFE7FFF796FC0399401A652804D39B
:102D9000FFE705A90320087053E1EDE7FFE7AD4821
:102DA000006803210A0510400290029804994968BE
:102DB0001140884209D1FFE70298049989680322EB
:102DC00012051140884214D0FFE70498406803219F
:102DD0000904084088420BD1FFE79E480068800341
:102DE000002804D5FFE705A90120087029E1FFE7C5
:102DF000FFE79948006803210904084002900298FF
:102E0000002851D0FFE70298049949680322120470
:102E10001140884207D0FFE704980068202108404D
:102E200020280FD0FFE70298049989680322120432
:102E30001140884238D0FFE7049840780007002806
:102E400032D5FFE7844908680322120490430290B8
:102E500008680122D20410430860086890430860A3
:102E60000298086002A84078C00700281BD0FFE73E
:102E7000FFF720FC0390FFE7774800680121490233
:102E80000840400A00280DD1FFE7FFF713FC039923
:102E9000401A7349884204D3FFE705A9032008704C
:102EA000CFE0E9E7FFE7FFE7049840780007002854
:102EB00021D5FFE7FFE7FFE70498806803210904B5
:102EC000084088420BD1FFE76249086803221305D6
:102ED0009843049A92681A4080180860FFE7FFE759
:102EE000049882680320000402405B49086810438C
:102EF0000860FFE7FFE7049800788006002821D5E6
:102F0000FFE7FFE7FFE70498406803210904084052
:102F100088420BD1FFE74F49086803221305984305
:102F2000049A52681A4080180860FFE7FFE7049887
:102F300042680320000402404749086810430860C3
:102F4000FFE7FFE701A80078012807D1FFE73F4925
:102F500008680122120790430860FFE7FFE7049822
:102F60000078C007002809D0FFE73C490868032221
:102F70009043049AD26810430860FFE704980078F1
:102F80008007002809D5FFE7344908680C229043E0
:102F9000049A126910430860FFE70498007840071C
:102FA00000280AD5FFE72D490868032292029043C2
:102FB000049A526910430860FFE7049800780007FC
:102FC00000280AD5FFE72549086803221203904329
:102FD000049A926910430860FFE704984078C0079C
:102FE00000280AD0FFE71D49086803221204904315
:102FF000049AD26910430860FFE7049800784006FD
:1030000000280AD5FFE71549086801229206904377
:10301000049A526A10430860FFE70498007800069B
:1030200000280AD5FFE70D4908680322920490435F
:10303000049A126A10430860FFE705A9002008708F
:10304000FFE705A8007806B080BDC04638100240F2
:103050000070004000100240501002404C1002402E
:103060008913000080B586B004900391049800286D
:1030700004D1FFE705A90120087062E10398B34974
:10308000096801221140884221D9FFE7AF49086849
:1030900001229043039A10430860FFF70BFB029054
:1030A000FFE7AA48006801210840039988420DD033
:1030B000FFE7FFF7FFFA0299401AA549884204D3B7
:1030C000FFE705A9032008703BE1EAE7FFE7049862
:1030D00000788007002809D5FFE7F3490868F02247
:1030E0009043049A926810430860FFE704980078C0
:1030F000C007002800D1BCE00498406802280ED127
:10310000FFE7EB480068012149040840400C002813
:1031100004D1FFE705A90120087012E134E004980A
:10312000406803280ED1FFE7E14800680121490605
:103130000840400E002804D1FFE705A901200870CF
:10314000FFE020E00498406801280DD1FFE7D8484F
:103150000068042108408008002804D1FFE705A981
:1031600001200870EDE00DE0D1480068012149021E
:103170000840400A002804D1FFE705A90120087093
:10318000DFE0FFE7FFE7FFE7C74908680322904356
:10319000049A526810430860FFF78CFA0290049872
:1031A0004068022816D1FFE7FFE7BF4800680C21FE
:1031B000084008280DD0FFE7FFF77CFA0299401A73
:1031C0006349884204D3FFE705A903200870B8E0EB
:1031D000EBE74DE004984068032816D1FFE7FFE7CE
:1031E000B14800680C2108400C280DD0FFE7FFF71C
:1031F00061FA0299401A5649884204D3FFE705A9AB
:10320000032008709DE0EBE731E004984068012856
:1032100016D1FFE7FFE7A44800680C210840042806
:103220000DD0FFE7FFF746FA0299401A4849884255
:1032300004D3FFE705A90320087082E0EBE715E05F
:10324000FFE7994800680007800F00280DD0FFE7CE
:10325000FFF730FA0299401A3D49884204D3FFE74C
:1032600005A9032008706CE0EBE7FFE7FFE7FFE745
:10327000FFE703983549096801221140884221D2AD
:10328000FFE73249086801229043039A104308601F
:10329000FFF710FA0290FFE72C4800680121084070
:1032A000039988420DD0FFE7FFF704FA0299401A0C
:1032B0002749884204D3FFE705A90320087040E0AE
:1032C000EAE7FFE704980078400700280AD5FFE7FF
:1032D00075490868072212029043049AD268104385
:1032E0000860FFE704980078000700280BD5FFE787
:1032F0006D4908680722D2029043049A1269D200ED
:1033000010430860FFE700F04DF867490968C9B24B
:103310000A091049895CC840124908600E480068D3
:10332000FFF788FC014601A801700078002804D04E
:10333000FFE7019805A9087003E005A900200870BF
:10334000FFE705A8007806B080BDC0460020024017
:1033500089130000DC6B00080800002001480068A9
:103360007047C0460000002080B5FFF7F7FF4E49C8
:1033700009680722120211400A0A0949895CC840FB
:1033800080BDC04680B5FFF7E9FF474909680722BD
:10339000D2021140CA0A0249895CC84080BDC046B9
:1033A000EC6B000880B588B03F480068079007982C
:1033B0000C21084001900C2866D80198810001A0DA
:1033C000405887468734000889340008893400084B
:1033D00089340008F933000889340008893400086A
:1033E000893400081334000889340008893400083F
:1033F00089340008193400082D480068C0060028E8
:1034000003D5FFE72C48029002E02A480290FFE72C
:1034100046E02A48029043E007980F2189040840BB
:10342000810C2248405C06900798032189050840DA
:10343000800D401C05901C480068C003002808D57A
:10344000FFE706991D4848430599FCF7FBFF0490E8
:1034500016E017480068C006002808D5FFE706995F
:10346000154848430599FCF7EDFF049007E00699DD
:10347000104848430599FCF7E5FF0490FFE7FFE794
:10348000049802900CE0FFE70D48006880B2400B02
:1034900003900398411C01208840C0030290FFE77D
:1034A000029808B080BDC0460C100240F0710008C0
:1034B000001002400024F40000093D0000127A00D0
:1034C0000410024010B58AB008900898002805D171
:1034D000FFE709A90120087000F015FCFD4801680C
:1034E0000C22114004910068012109040840039056
:1034F00008980078C007002800D18DE004980828BB
:103500000AD0FFE704980C2819D1FFE7039801219E
:103510000904884213D1FFE7EF48006801214904FC
:103520000840400C002809D0FFE7089840680028B0
:1035300004D1FFE709A901200870E4E36BE0FFE78D
:103540000898406801210904884207D1FFE7E24951
:103550000868012212041043086021E008984068BE
:103560000521090488420BD1FFE7DB4908680122E5
:1035700093041843086008681204104308600EE0C2
:10358000D549086801221304984308600868184068
:10359000029002980868920490430860FFE7FFE7F2
:1035A000FFE70898406800281AD0FFE7FFF782F885
:1035B0000790FFE7C8480068012149040840400C13
:1035C00000280CD1FFE7FFF775F80799401A652826
:1035D00004D3FFE709A90320087094E3EAE719E0A0
:1035E000FFF768F80790FFE7BB480068012149042E
:1035F0000840400C00280CD0FFE7FFF75BF8079964
:10360000401A652804D3FFE709A9032008707AE36C
:10361000EAE7FFE7FFE7FFE7089800788007002860
:1036200000D4A8E00898C068069006A80078800634
:10363000002809D5FFE7A84A106820210843106038
:10364000069888430690FFE70498042808D0FFE70F
:1036500004980C2841D1FFE7039800283DD1FFE7EB
:103660009D480068042108408008002808D0FFE732
:103670000698002804D1FFE709A90120087042E359
:10368000964908681F2212029043089A1269120292
:10369000104308609049086809229043069A104335
:1036A0000860FFE7FFF77EFE8A490968C9B20A0988
:1036B0008B49895CC8408B4908608B480068FFF7DC
:1036C000B9FA014605A801700078002804D0FFE788
:1036D000059809A9087016E34CE0069800282AD03E
:1036E000FFE77D49086809229043069A1043086065
:1036F000FEF7E0FF0790FFE77748006804210840E5
:10370000800800280CD1FFE7FEF7D4FF0799401A84
:10371000032804D3FFE709A903200870F3E2EBE7CD
:103720006E4908681F2212029043089A1269120219
:10373000104308601DE06849086801229043086052
:10374000FEF7B8FF0790FFE76348006804210840D0
:10375000800800280CD0FFE7FEF7ACFF0799401A5D
:10376000032804D3FFE709A903200870CBE2EBE7A5
:10377000FFE7FFE7FFE708980078C006002800D4BD
:10378000A1E00498002845D1FFE7534800680121D3
:1037900049020840400A002809D0FFE70898C0699C
:1037A000002804D1FFE709A901200870ABE24B49CA
:1037B0000868072252039043089A526A104308602F
:1037C0000868FF2212069043089A126A12068018AF
:1037D00008600898406A400B411C01208840C003E3
:1037E0003C490968C9B20A093D49895CC8403D495C
:1037F00008603D480068FFF71DFA014605A8017002
:103800000078002804D0FFE7059809A908707AE23B
:10381000FFE757E00898C069002832D0FFE72E493B
:1038200008680122120210430860FEF743FF079068
:10383000FFE729480068012149020840400A0028A2
:103840000CD1FFE7FEF736FF0799401A032804D38F
:10385000FFE709A90320087055E2EAE71F49086855
:10386000072252039043089A526A1043086008687E
:10387000FF2212069043089A126A12068018086006
:103880001FE0154908680122120290430860FEF704
:1038900011FF0790FFE71048006801214902084026
:1038A000400A00280CD0FFE7FEF704FF0799401AF2
:1038B000032804D3FFE709A90320087023E2EAE7FD
:1038C000FFE7FFE7FFE708980078000700284FD5DB
:1038D0000CE0C0460C1002400010024004100240F0
:1038E000DC6B0008000000200800002008984069F8
:1038F00000281ED0FFE7FD49086801221043086038
:10390000FEF7D8FE0790FFE7F8480068022108405C
:10391000400800280CD1FFE7FEF7CCFE0799401ABB
:10392000032804D3FFE709A903200870EBE1EBE7C4
:103930001DE0F9490868012290430860FEF7BAFECD
:103940000790FFE7F448006802210840400800287B
:103950000CD0FFE7FEF7AEFE0799401A032804D308
:10396000FFE709A903200870CDE1EBE7FFE7FFE7D8
:10397000089800784007002800D4BBE001A9002087
:103980000870E6480068C000002809D4FFE7E34A51
:103990001168012003071943116001A90870FFE7AE
:1039A000DF480068C00500281DD4FFE7DC4908682F
:1039B0000122120210430860FEF77CFE0790FFE729
:1039C000D7480068C00500280CD4FFE7FEF772FE58
:1039D0000799401A652804D3FFE709A90320087056
:1039E00091E1EDE7FFE7FFE7089880680121090210
:1039F000884207D1FFE7C849086801221202104334
:103A000008602EE00898806800280BD1FFE7C249C3
:103A100008680122130298430860086892029043E4
:103A200008601DE0089880680521090288420BD1D2
:103A3000FFE7B94908680122930218430860086843
:103A40001202104308600AE0B34908680122130219
:103A5000984308600868920290430860FFE7FFE718
:103A6000FFE7FFE70898806800281BD0FFE7FEF714
:103A700021FE0790FFE7A84800680121490208409D
:103A8000400A00280DD1FFE7FEF714FE0799401AFF
:103A9000A449884204D3FFE709A90320087032E152
:103AA000E9E71AE0FEF706FE0790FFE79A4800688C
:103AB000012149020840400A00280DD0FFE7FEF727
:103AC000F9FD0799401A9749884204D3FFE709A9ED
:103AD0000320087017E1E9E7FFE701A80078012853
:103AE00007D1FFE78D49086801221207904308605B
:103AF000FFE7FFE7089800788006002854D5FFE725
:103B000008988069002829D0FFE7FFE78649086800
:103B10000122104308608649086810430860834901
:103B20000868520310430860FFE7FEF7C3FD0790E3
:103B3000FFE77D48006802210840400800280CD1BA
:103B4000FFE7FEF7B7FD0799401A032804D3FFE704
:103B500009A903200870D6E0EBE724E0FFE77249EB
:103B60000868012290430860704908685203904336
:103B70000860FFE7FEF79EFD0790FFE76A480068D0
:103B800002210840400800280CD0FFE7FEF792FD14
:103B90000799401A032804D3FFE709A903200870F6
:103BA000B1E0EBE7FFE7FFE70898806A002800D163
:103BB000A5E004980C2872D0FFE70898806A0228D4
:103BC0004CD1FFE753490868012212069043086070
:103BD000FEF770FD0790FFE74E4800680121490697
:103BE0000840400E00280CD0FFE7FEF763FD079960
:103BF000401A032804D3FFE709A90320087082E0D4
:103C0000EAE743490868FD2212049043089BDA6AF8
:103C10001C6B22435B6B1A43104308603D490868E4
:103C20000122120610430860FEF744FD0790FFE7EB
:103C300038480068012149060840400E00280CD190
:103C4000FFE7FEF737FD0799401A032804D3FFE783
:103C500009A90320087056E0EAE71FE02D4908682B
:103C60000122120690430860FEF724FD0790FFE74B
:103C700028480068012149060840400E00280CD061
:103C8000FFE7FEF717FD0799401A032804D3FFE763
:103C900009A90320087036E0EAE7FFE72EE008985C
:103CA000806A012804D1FFE709A9012008702AE0F1
:103CB00017480068039003980121090408400899F7
:103CC000C96A884214D1FFE703980F21890408408C
:103CD0000899096B88420BD1FFE7039803218905F6
:103CE00008400899496B884206D001E05010024014
:103CF00009A90120087006E0FFE7FFE7FFE709A92F
:103D000000200870FFE709A800780AB010BDC0467F
:103D10000C100240001002405010024038100240C7
:103D2000007000408913000008100240200001408C
:103D30003410024080B582B00190019801F058FC27
:103D400002B080BD85B003900291FFE7039838214F
:103D5000405C012804D1FFE704A90220087053E069
:103D60000399382201208854FFE7FFE7039939229D
:103D70000220885403980068406801900398006806
:103D80008068009001987021884301900298016832
:103D900001980843019001980399096848600398C5
:103DA000006801218907884212D0FFE70398006864
:103DB000894988420CD0FFE7039800688749884208
:103DC00006D0FFE703980068854988420ED1FFE7D7
:103DD0000098802188430090029841680098084329
:103DE00000900098039909688860FFE703993922D9
:103DF00001208854FFE70399382200208854FFE708
:103E000004A900200870FFE704A8007805B07047F7
:103E100083B001900091FFE701983821405C0128B0
:103E200004D1FFE702A90220087013E001993822AB
:103E300001208854FFE7FFE70098019909680865A9
:103E4000FFE70199382200208854FFE702A90020EB
:103E50000870FFE702A8007803B0704780B582B011
:103E600000900098002804D1FFE701A90120087004
:103E700030E000983921405C002808D1FFE7009924
:103E8000382200208854009800F028F8FFE70099B5
:103E9000392202208854009901C901F043FC00999D
:103EA0003E2201208854FFE700993A2201208854DD
:103EB00000993B22885400993C22885400993D2265
:103EC0008854FFE7009939220120885401A9002075
:103ED0000870FFE701A8007802B080BD80B582B00D
:103EE000019001980068114988420FD1FFE71149FC
:103EF000086810221043086011200090002211462B
:103F0000FEF7EBFE0098FEF7DDFE0CE0019800687E
:103F10000749884206D1FFE7064908682022104376
:103F20000860FFE7FFE702B080BDC0460010004018
:103F3000001400403810024083B0019001983921EC
:103F4000405C012804D0FFE702A9012008703EE090
:103F5000019939220220885401980268D068012111
:103F60000843D060019800688907884212D0FFE7B3
:103F700001980068954988420CD0FFE701980068D5
:103F80001649884206D0FFE7019800681449884224
:103F900012D1FFE70198006880680721084000906F
:103FA0000098062807D0FFE70198016808680122F9
:103FB00010430860FFE706E00198016808680122E5
:103FC00010430860FFE702A900200870FFE702A87D
:103FD000007803B07047C04600040040000801406C
:103FE0000014014080B586B0059005980068012155
:103FF0008907884270D1FFE70598007E01286BD1C0
:10400000FFE77B480088002818D1FFE705980021CA
:1040100000F044FD78490860754901200880FFE7F9
:1040200005980168086A0A229043086205980168A9
:10403000086A022210430862FFE74CE0059800215D
:10404000049100F02BFD049902466A480260059A2B
:1040500012685162006868490968884208D9FFE718
:104060006448006864490968401A6449086009E0C6
:10407000614801685F480068401A584940185F4924
:104080000860FFE75D480068FCF719FD554A564B8C
:10409000FCF718FD0122930700220392FCF78CFA2B
:1040A000FCF7AEFC01460398554A11805049088040
:1040B000FFE705980168086A0A229043086205989C
:1040C0000168086A0862FFE705980168C86802226B
:1040D0009043C860FFE776E005980068EB498842A6
:1040E00070D1FFE70598007E01286BD1FFE73848C3
:1040F0000088002818D1FFE70598002100F0CEFCC9
:1041000035490860324901200880FFE705980168B9
:10411000086A0A229043086205980168086A022228
:1041200010430862FFE74CE005980021029100F07F
:10413000B5FC0299024627480260059A126851624E
:10414000006825490968884208D9FFE721480068C6
:1041500021490968401A2249086009E01E4801689F
:104160001C480068401A1D4940181D490860FFE7B7
:104170001B480068FCF7A3FC1A4A1B4BFCF7A2FC87
:104180000122930700220192FCF716FAFCF738FC93
:1041900001460198154A11800D490880FFE70598EE
:1041A0000168086A0A229043086205980168086A53
:1041B0000862FFE705980168C86802229043C8605A
:1041C000FFE7FFE7FFE706B080BDC0460004004000
:1041D000920000208C00002084000020FFFF0000DF
:1041E000740000209CC420B07268A13F7A000020B7
:1041F0009000002088000020800000207000002037
:104200007800002080B586B004900391029201A945
:1042100000200870FFE704983821405C012804D191
:10422000FFE705A90220087082E0049938220120E6
:104230008854FFE7FFE70298002816D1FFE70498AB
:104240000068039B19685A68DB6801F0EBFA049870
:10425000016888690C2290438861039882680498F9
:10426000016888691043886158E00298042818D1D1
:10427000FFE704980068039B19685A68DB6801F03F
:1042800031FB049801688869032292029043886197
:104290000398806802020498016888691043886165
:1042A0003BE00298082816D1FFE704980068039BBA
:1042B00019685A68DB6801F04CFB04980168C8690A
:1042C0000C229043C8610398826804980168C86909
:1042D0001043C86120E002980C2818D1FFE7049829
:1042E0000068039B19685A68DB6801F068FB049852
:1042F0000168C869032292029043C86103988068EC
:10430000020204980168C8691043C86103E001A96A
:1043100001200870FFE7FFE7FFE7FFE7FFE70499E9
:10432000382200208854FFE7019805A90870FFE7AC
:1043300005A8007806B080BD80B582B000900098D6
:10434000002804D1FFE701A90120087030E000989F
:104350003921405C002808D1FFE70099382200206D
:104360008854009800F028F8FFE7009939220220CD
:104370008854009901C901F0D5F900993E22012025
:104380008854FFE700993A220120885400993B2283
:10439000885400993C22885400993D228854FFE7B4
:1043A000009939220120885401A900200870FFE7F4
:1043B00001A8007802B080BD80B58CB00B900020C1
:1043C0000A9009900890079006900B9800680121C8
:1043D0008907884228D1FFE72D4908680122104348
:1043E0000860FFE72B48026801210A430260006869
:1043F000084005900598FFE70120069002200790ED
:1044000000210291089109910A900520000706A950
:10441000FDF7B0FF029A0F2003901146FEF75DFCF6
:104420000398FEF74FFC2EE00B98006890498842F5
:1044300028D1FFE716490868022210430860FFE709
:104440001448026801210A43026000680840049091
:104450000498FFE740200690022007900021009179
:10446000089109910A900520000706A9FDF782FF2F
:10447000009A102001901146FEF72FFC0198FEF7DC
:1044800021FCFFE7FFE70CB080BDC0460004004000
:10449000381002402C10024080B58EB00C900B9169
:1044A0000AA9002008700B98002805D1FFE70C9896
:1044B0003A21405C07901CE00B98042805D1FFE7E7
:1044C0000C983B21405C069010E00B98082805D121
:1044D000FFE70C983C21405C059004E00C983D21DE
:1044E000405C0590FFE705980690FFE70698079067
:1044F000FFE7079908A801700078012804D0FFE7BA
:104500000DA901200870AEE00B98002805D1FFE747
:104510000C993A22022088541EE00B98042806D1F8
:10452000FFE70C993B2202208854049012E00B987C
:10453000082806D1FFE70C993C22022088540390FA
:1045400005E00C993D22022088540390FFE7039870
:104550000490FFE70498FFE70B9802900C283BD8E3
:104560000298810001A040588746C046A145000836
:10457000D9450008D9450008D9450008AF450008CD
:10458000D9450008D9450008D9450008BD450008AF
:10459000D9450008D9450008D9450008CB45000891
:1045A0000C980168C86802221043C86018E00C9893
:1045B0000168C86804221043C86011E00C980168C3
:1045C000C86808221043C8600AE00C980168C868EF
:1045D00010221043C86003E00AA901200870FFE719
:1045E0000AA8007800283AD1FFE70C9800680B99D8
:1045F0000122019201F0FCF801990C9800688907EA
:10460000884212D0FFE70C980068194988420CD004
:10461000FFE70C9800681749884206D0FFE70C981E
:1046200000681549884212D1FFE70C98006880683D
:104630000721084009900998062807D0FFE70C9841
:1046400001680868012210430860FFE706E00C9843
:1046500001680868012210430860FFE7FFE70A9835
:104660000DA90870FFE70DA800780EB080BDC04608
:1046700000040040000801400014014080B584B0EF
:10468000039003980068C06802900398006800696E
:10469000019001A800788007002825D5FFE702A82F
:1046A0000078800700281ED5FFE7039801680220E4
:1046B000C043086103990120087603980068806967
:1046C0008007002804D0FFE70398FFF78BFC06E083
:1046D000039800F0BAF8039800F0BBF8FFE70399DD
:1046E00000200876FFE7FFE701A8007840070028D0
:1046F00026D5FFE702A80078400700281FD5FFE76E
:10470000039801680420C0430861039902200876D9
:104710000398006880698005800F002804D0FFE7B7
:104720000398FFF75FFC06E0039800F08EF803980B
:1047300000F08FF8FFE7039900200876FFE7FFE716
:1047400001A800780007002825D5FFE702A8007817
:10475000000700281ED5FFE7039801680820C04322
:10476000086103990420087603980068C0698007EF
:10477000002804D0FFE70398FFF734FC06E0039815
:1047800000F063F8039800F064F8FFE70399002055
:104790000876FFE7FFE701A80078C006002826D5C5
:1047A000FFE702A80078C00600281FD5FFE703989E
:1047B00001681020C0430861039908200876039817
:1047C0000068C0698005800F002804D0FFE70398C7
:1047D000FFF708FC06E0039800F037F8039800F0B4
:1047E00038F8FFE7039900200876FFE7FFE701A804
:1047F0000078C007002810D0FFE702A80078C007A3
:10480000002809D0FFE7039801680120C043086130
:10481000039800F023F8FFE7FFE701A800784006BF
:10482000002810D5FFE702A800784006002809D527
:10483000FFE7039801684020C0430861039800F037
:104840006DF9FFE7FFE704B080BD81B0009001B0D3
:10485000704781B0009001B070470000B0B5ACB0B7
:104860002B902B9800687F49884200D0F7E07E4863
:104870000178491C01700078142804DBFFE77A49AD
:1048800000200870FFE778480078012108400B906D
:10489000002804D0FFE70B98012803D005E001F0C1
:1048A000C7F802E001F0E0F8FFE76F480078C007C2
:1048B000002839D0FFE76D480078062833DCFFE791
:1048C0006B4800881E282DDCFFE76A4800881E28F8
:1048D00028DCFFE7664A1088644C21784B00664963
:1048E000C8526449088823785D00644B5853108887
:1048F0000B88C31A6248038023785B1C23701288DC
:104900000B880021405E00905E4923A80A90FBF7C7
:1049100059FD0A99229022A802885B48012300F0E1
:1049200091F9FFE7FFE7FFE74F480078002800D044
:1049300094E00020219020901FA908701E90FFE7AE
:104940001E98062826DCFFE71E9841004A48405A78
:104950001E281ADCFFE71E9841004848405A1E28CE
:1049600013DCFFE71E9841004348415A2198401844
:1049700021901E9841004148415A209840182090AB
:104980001F98401C1FA90870FFE7FFE71E98401CF6
:104990001E90D5E71FA8007801285BDBFFE7219870
:1049A0001FA901910978FBF74DFD01991DAA0292FB
:1049B000108020980978FBF745FD014602981CAA53
:1049C000039211801D991C9A891A1BAA04921180C6
:1049D00002882E4916A80590FBF7F4FC039802887C
:1049E0002B4911A80690FBF7EDFC049800210791D4
:1049F000425E28490CA80990FBF7E4FC079801F0F7
:104A0000DDFD0799084601F069FE059822490891E5
:104A10008B684A6809680124009401F07BFF0798BD
:104A20000C2101F05BFE069808998B684A680968BA
:104A3000009401F06FFF0798182101F04FFE0899CC
:104A400009988B684A680968009401F063FF01F0D7
:104A500071FEFFE7054900200870FFE7FFE72CB073
:104A6000B0BDC046001000407C0000209A0200202B
:104A7000780000207A0000207804002086040020BE
:104A800094040020F9710008F00300201672000859
:104A9000207200082A720008E471000884B00390B4
:104AA000029100200190029800900C2832D80098C2
:104AB000810001A040588746ED4A0008154B0008C8
:104AC000154B0008154B0008F74A0008154B000865
:104AD000154B0008154B0008014B0008154B00084A
:104AE000154B0008154B00080B4B00080398006895
:104AF000406B01900FE003980068806B01900AE022
:104B000003980068C06B019005E003980068006C92
:104B1000019000E0FFE7019804B0704781B0009079
:104B200001B0704780B582B000900098002804D191
:104B3000FFE701A90120087048E00098806900287B
:104B400001D0FFE700E0FFE70098C06F002808D120
:104B5000FFE70099782200208854009800F03AF886
:104B6000FFE700992420C8670098016808680122BF
:104B7000904308600098406A002804D0FFE700983E
:104B800000F08EFFFFE7009801F03EF9012804D104
:104B9000FFE701A90120087018E000980168486843
:104BA0000922D202904348600098016888682A224E
:104BB00090438860009801680868012210430860EB
:104BC000009801F01BF801A90870FFE701A8007820
:104BD00002B080BD80B588B0079000200690059097
:104BE000049003900290079800681349884221D1ED
:104BF000FFE7124908680122520410430860FFE7EA
:104C00000F48026801210A430260006808400190D1
:104C10000198FFE70C2002900220039000200490EE
:104C200003200590042006900520000702A9FDF747
:104C3000A1FBFFE708B080BD0044004038100240EF
:104C40002C10024010B58AB00890079106A8028087
:104C500005930898C06F202800D09BE00798002893
:104C600005D0FFE706A80088002804D1FFE709A9BE
:104C70000120087092E008988068012109038842A9
:104C800010D1FFE70898006900280BD1FFE707A8BB
:104C90000078C007002804D0FFE709A901200870A8
:104CA0007CE0FFE7089984220020885008992120A1
:104CB000C867FDF7FFFC02900698089950228852B9
:104CC00006980899522288520898806801210903A1
:104CD00088420AD1FFE708980069002805D1FFE75C
:104CE000002004900798039004E0079804900020A7
:104CF0000390FFE7FFE708985221405A002830D080
:104D0000FFE70898029B059900918021002201F09D
:104D1000FDFA002807D0FFE708992020C86709A9F5
:104D2000032008703AE0049800280BD1FFE70398AD
:104D300000881C4908400899096888620398801C0B
:104D4000039008E00498007808990968886204983C
:104D5000401C0490FFE708995222885A401E88524E
:104D6000C9E70898029B059900914021002201F0B3
:104D7000CDFA002807D0FFE708992020C86709A9C5
:104D8000032008700AE008992020C86709A90020BC
:104D9000087003E009A902200870FFE709A800785D
:104DA0000AB010BDFF010000FFE7FEE781B00090F0
:104DB000009800688069022108404008002805D05A
:104DC000FFE70098016800208862FFE7009800680C
:104DD0008069C007002807D1FFE70098016888694B
:104DE000012210438861FFE701B0704780B58AB0A7
:104DF00009900891079206A900200870099909688E
:104E00008969059104900798039005A80078C00669
:104E1000002800D484E0099801681020C861FFE7E9
:104E20000998006880692021084041090020002974
:104E3000009006D1FFE706A8007841424841009063
:104E4000FFE70098C007002858D0FFE70898401CEB
:104E5000002852D0FFE7FDF72DFC0399401A08996E
:104E6000884204D8FFE70898002845D1FFE7099851
:104E70000068406801218903084002900998422196
:104E8000405C01A9087009980068806980B2C00B75
:104E9000002816D0FFE7029801218903884210D02C
:104EA000FFE701A8007820280BD0FFE709980168E8
:104EB00048680122920310434860FDF7FBFB039012
:104EC000FFE7FFE709980068806920210840400952
:104ED000002810D1FFE7FDF7EDFB0399401A1A28CF
:104EE00008D3FFE7049820210843049006A9012075
:104EF000087000E0E6E7FFE7FFE791E706A8007823
:104F0000002805D1FFE7099801682020C861FFE764
:104F1000049804210843049006A901200870FFE7C3
:104F2000099800688069059005A84078C0070028A6
:104F30000BD0FFE7049901200143049109990A6805
:104F40000102D16106A90870FFE705A84078400773
:104F500000280CD5FFE7049808210843049009981D
:104F6000026801208102D16106A90870FFE705A847
:104F70004078800700280CD5FFE7049802210843F9
:104F800004900998026801204102D16106A90870C5
:104F9000FFE706A8007800281DD0FFE70998FFF773
:104FA00005FF0998016848680D4A10404860049A56
:104FB0000999486C1043486409994122202088547B
:104FC0000999422200208854FFE7099940220020D5
:104FD0008854FFE7FFE706A800780AB080BDC04606
:104FE00000E800FE10B588B00291014602980B9CC3
:104FF0000A9C069105A9088004A8028003AA1380D0
:10500000069809881278254B009301231B0600F0AF
:1050100047F806980A990B9A00F01DF9002804D069
:10502000FFE707A90120087034E003A800880128E1
:1050300006D1FFE704A8007806990968886216E09F
:1050400004A8407806990968886206980A990B9A1C
:1050500000F001F9002804D0FFE707A9012008703B
:1050600018E004A80078069909688862FFE70698A6
:105070000A9B0B9900918021002200F03BF8002848
:1050800004D0FFE707A90120087003E007A900206A
:105090000870FFE707A8007808B010BD0020008066
:1050A00010B585B0079C049003A8018002A90A707E
:1050B000019300880D4A10400978090440180199AD
:1050C0000843079908430121C907884300900498C1
:1050D000006840680799490D8843054908400099D0
:1050E000084304990968486005B010BDFF0300003B
:1050F000009C00FC10B586B0089C0490039102A8A7
:1051000002700193FFE704980068806903990840E2
:10511000401A4142484102A90978884243D1FFE739
:1051200004980199089AFFF761FE002804D0FFE770
:1051300005A9012008703AE00198401C002831D0F0
:10514000FFE7FDF7B7FA0899401A0199884204D899
:10515000FFE70198002824D1FFE7049800688069E0
:1051600003990840401A4142484102A909788842FF
:1051700016D1FFE7049A516C202001435164049931
:10518000412288540499422200208854FFE7049960
:10519000402200208854FFE705A90120087006E09E
:1051A000FFE7FFE7AFE705A900200870FFE705A8C4
:1051B000007806B010BD80B584B0029001910092D5
:1051C000FFE7029800688069202108404009002814
:1051D00039D1FFE702980199009AFFF707FE0028EE
:1051E00004D0FFE703A90120087030E0FDF762FA60
:1051F0000099401A0199884204D8FFE701980028D5
:1052000020D1FFE70298006880692021084040090A
:10521000002816D1FFE7029A516C20200143516407
:105220000299412288540299422200208854FFE7C3
:105230000299402200208854FFE703A9012008704A
:1052400005E0FFE7BDE703A900200870FFE703A81A
:10525000007804B080BD80B584B0029001910092C6
:10526000FFE7029800688069022108404008002892
:105270003FD1FFE702980199009AFFF7B7FD002898
:1052800004D0FFE703A90120087036E00198401C14
:1052900000282DD0FFE7FDF70DFA0099401A01997B
:1052A000884204D8FFE70198002820D1FFE7029840
:1052B00000688069022108404008002816D1FFE7F5
:1052C000029A516C20200143516402994122885472
:1052D0000299422200208854FFE7029940220020D0
:1052E0008854FFE703A90120087006E0FFE7FFE705
:1052F000B7E703A900200870FFE703A8007804B00F
:1053000080BD000080B58AB0002009900890079009
:1053100006900590FFE71548026801210A430260E4
:105320000068084004900498FFE7FFE70F48026810
:1053300002210A4302600068084003900398FFE7D7
:105340000520000702902221009100220192FDF722
:105350009BF9009A01990298059201220692079101
:10536000089105A9FDF706F80AB080BD2C1002408F
:1053700080B582B016480190164901601649416017
:10538000002181600122C260016141618161C161CE
:105390000162FDF731FA002803D0FFE7FCF7C1FFF7
:1053A000FFE70B480021FDF78BF9002803D0FFE74A
:1053B000FCF7B7FFFFE706480021FDF7CCF900280E
:1053C00003D0FFE7FCF7ADFFFFE702B080BDC046AA
:1053D0009C02002000540040B47CB00080B588B02E
:1053E0000021019107910691059104910391029189
:1053F000C3480122920702601F2242608160384A3E
:10540000C26001614161FEF797FF002803D0FFE70A
:10541000FCF787FFFFE7002006900790B84806A931
:10542000FEF790FC002803D0FFE7FCF77AFFFFE7C8
:10543000002202920120039004920592B04802A932
:10544000FEF7E0FE002803D0FFE7FCF76AFFFFE766
:1054500008B080BD80B588B0002101910791069108
:105460000591049103910291A948DF4A02601F222D
:10547000426081601A4AC26001614161FEF75CFFCF
:10548000002803D0FFE7FCF74CFFFFE70020069061
:1054900007909F4806A9FEF755FC002803D0FFE7B8
:1054A000FCF73FFFFFE700220292012003900492E5
:1054B0000592974802A9FEF7A5FE002803D0FFE752
:1054C000FCF72FFFFFE792480421FEF7A1FC00281C
:1054D00003D0FFE7FCF725FFFFE708B080BDC0461B
:1054E000FEFF000080B582B00021019100918C4840
:1054F0000F4A02600F4A426081606322C2604161CC
:10550000FEF7ACFC002803D0FFE7FCF70AFFFFE73B
:1055100000200090019082486946FEF713FC0028A5
:1055200003D0FFE7FCF7FDFEFFE702B080BDC046F9
:1055300000100040FF7C000080B582B00021019186
:1055400000911048104A02601F22426081600F4A99
:10555000C2604161FEF782FC002803D0FFE7FCF740
:10556000E0FEFFE700200090019006486946FEF744
:10557000E9FB002803D0FFE7FCF7D3FEFFE702B00A
:1055800080BDC046B003002000140040FFFF0000B3
:1055900080B582B00D4801900D490160E1214902BA
:1055A000416000218160C16001610C224261816122
:1055B000C16101624162FFF7B5FA002803D0FFE73D
:1055C000FCF7AFFEFFE702B080BDC046F00300204D
:1055D00000440040FFE7FEE780B501F005F8002039
:1055E00000F0ECFF01F0A6F880BD704770470000A6
:1055F00080B584B002900298401E000E002803D0AF
:10560000FFE70120039011E00298401E094908605D
:1056100000200190C043032100F012FF01980649C9
:105620000860064A072111600390FFE7039804B061
:1056300080BDC04614E000E018E000E010E000E0AB
:1056400080B5FDF7CFFA80BDB0B5A0B012A802902A
:105650003821FAF7F4FE00200190119010900F907D
:105660000E900D9003A82821FAF7E9FE019A0298FE
:105670001E4C23680321C9028B430121CD025B1913
:105680002360022312931591102416941C931D92EB
:105690008A041E9289051F91FDF714FF002803D08C
:1056A000FFE7FCF73EFEFFE70F200D9003200E9072
:1056B00000200F90109011900DA80121FDF7D2FC51
:1056C000002803D0FFE7FCF72CFEFFE70A20039039
:1056D00000200790099003A8FDF70EFB002803D0D7
:1056E000FFE7FCF71EFEFFE720B0B0BD00700040F2
:1056F0007047000080B5DB48FEF7C0FF80BDC046A4
:10570000F002002080B5E548FEF7B8FF80BDC04636
:105710003003002080B50248FEF7B0FF80BDC046D0
:105720007003002083B002900191029800680090FD
:1057300002980121890788420FD0FFE70298664945
:1057400088420AD0FFE702986449884205D0FFE703
:105750000298264988420AD1FFE7009870218843C1
:10576000009001984168009808430090FFE7029874
:105770000121890788420FD0FFE7029856498842E5
:105780000AD0FFE702985549884205D0FFE7029802
:10579000164988420BD1FFE700980321090288438C
:1057A00000900198C168009808430090FFE70098B6
:1057B0008021884301990969084300900198806815
:1057C0000299C86201980068029988620299086883
:1057D0000422104308600299012048610098029950
:1057E000086003B07047C046000400400014014048
:1057F00084B0039002910192029A1F210A40012075
:1058000090400090009B039A106A98431062019A9E
:105810000298084082400399086A1043086204B065
:105820007047000087B00690059104920393069894
:10583000006A0190069A116A01208143116206995B
:1058400089690291069982079142009015D0FFE77D
:1058500006990120204A914200900ED0FFE7069958
:1058600001201E4A9142009007D0FFE706981C498C
:105870004018414248410090FFE70098C0070028C7
:1058800009D0FFE702980321884302900499029807
:105890000843029004E00298012108430290FFE7C8
:1058A0000298F0218843029003980001C1B2029847
:1058B0000843029001990A20814301910599014012
:1058C0000198084301900298069988610198069909
:1058D000086207B07047C04600040040000801405D
:1058E00000ECFEBF86B005900491039202930598E8
:1058F000006A00900599086A102290430862059892
:10590000806901900198032109028843019003985E
:10591000010201980843019001980F21090388436F
:1059200001900298000381B2019808430190009908
:10593000A020814300910499090101400098084387
:10594000009001980599886100980599086206B051
:10595000704786B005900491039202930598006AFF
:1059600000900599086A0122120290430862059886
:10597000C06901900198032188430190039901981F
:10598000084301900198F02188430190029800019A
:10599000C1B201980843019000990520400281435B
:1059A0000091049909020140009808430090019871
:1059B0000599C86100980599086206B0704786B0DD
:1059C00005900491039202930598006A009005994E
:1059D000086A01221203904308620598C069019089
:1059E000019803210902884301900398010201985C
:1059F0000843019001980F21090388430190029800
:105A0000000381B2019808430190009905204003EA
:105A100081430091049909030140009808430090D4
:105A200001980599C86100980599086206B0704709
:105A300080B582B00520000700900221019101226B
:105A4000FCF722FE0A2000F03DFD0098019900229B
:105A5000FCF71AFE019A03480168C8681043C86041
:105A600002B080BDF002002080B582B005200007A2
:105A70000090202101910122FCF706FE0A2000F08F
:105A800021FD009801990022FCF7FEFD0348016802
:105A9000C86802221043C86002B080BD30030020F5
:105AA00081B0009000982421405C000700280CD5AC
:105AB000FFE70098006840680121C9038843009906
:105AC0004A6B104309684860FFE700982421405C56
:105AD000C00700280CD0FFE700980068406801214B
